{
  "address": "0x147b049d809e09dB80BfA64643dD84948fB889e5",
  "abi": [
    {
      "inputs": [],
      "name": "AlreadySigned",
      "type": "error"
    },
    {
      "inputs": [],
      "name": "NotOwner",
      "type": "error"
    },
    {
      "inputs": [],
      "name": "NotRequestedYet",
      "type": "error"
    },
    {
      "inputs": [],
      "name": "NotSigned",
      "type": "error"
    },
    {
      "inputs": [],
      "name": "NotValidInput",
      "type": "error"
    },
    {
      "inputs": [],
      "name": "NotVerifier",
      "type": "error"
    },
    {
      "inputs": [],
      "name": "SamePerson",
      "type": "error"
    },
    {
      "anonymous": false,
      "inputs": [],
      "name": "ConcentRevoked",
      "type": "event"
    },
    {
      "anonymous": false,
      "inputs": [],
      "name": "CredentialsAcepted",
      "type": "event"
    },
    {
      "anonymous": false,
      "inputs": [],
      "name": "CredentialsIssued",
      "type": "event"
    },
    {
      "anonymous": false,
      "inputs": [],
      "name": "GiveConcent",
      "type": "event"
    },
    {
      "anonymous": false,
      "inputs": [],
      "name": "RequestSent",
      "type": "event"
    },
    {
      "inputs": [],
      "name": "_requestedID",
      "outputs": [
        {
          "internalType": "uint256",
          "name": "_value",
          "type": "uint256"
        }
      ],
      "stateMutability": "view",
      "type": "function"
    },
    {
      "inputs": [],
      "name": "_userID",
      "outputs": [
        {
          "internalType": "uint256",
          "name": "_value",
          "type": "uint256"
        }
      ],
      "stateMutability": "view",
      "type": "function"
    },
    {
      "inputs": [
        {
          "internalType": "uint256",
          "name": "_userId",
          "type": "uint256"
        }
      ],
      "name": "acceptCredentials",
      "outputs": [],
      "stateMutability": "nonpayable",
      "type": "function"
    },
    {
      "inputs": [
        {
          "internalType": "uint256",
          "name": "_userId",
          "type": "uint256"
        }
      ],
      "name": "checkConcent",
      "outputs": [
        {
          "internalType": "bool",
          "name": "",
          "type": "bool"
        }
      ],
      "stateMutability": "view",
      "type": "function"
    },
    {
      "inputs": [
        {
          "internalType": "uint256",
          "name": "_userId",
          "type": "uint256"
        }
      ],
      "name": "dismissRequest",
      "outputs": [],
      "stateMutability": "nonpayable",
      "type": "function"
    },
    {
      "inputs": [],
      "name": "getCurrentUserId",
      "outputs": [
        {
          "internalType": "uint256",
          "name": "",
          "type": "uint256"
        }
      ],
      "stateMutability": "view",
      "type": "function"
    },
    {
      "inputs": [],
      "name": "getCurrentrecipientId",
      "outputs": [
        {
          "internalType": "uint256",
          "name": "",
          "type": "uint256"
        }
      ],
      "stateMutability": "view",
      "type": "function"
    },
    {
      "inputs": [
        {
          "internalType": "address",
          "name": "_verifierAddress",
          "type": "address"
        }
      ],
      "name": "getPermittedVerifier",
      "outputs": [
        {
          "internalType": "bool",
          "name": "",
          "type": "bool"
        }
      ],
      "stateMutability": "view",
      "type": "function"
    },
    {
      "inputs": [
        {
          "internalType": "uint256",
          "name": "_userCurrentId",
          "type": "uint256"
        }
      ],
      "name": "getUsers",
      "outputs": [
        {
          "components": [
            {
              "internalType": "uint256",
              "name": "userId",
              "type": "uint256"
            },
            {
              "internalType": "address",
              "name": "userAddress",
              "type": "address"
            },
            {
              "internalType": "string",
              "name": "userName",
              "type": "string"
            },
            {
              "internalType": "string",
              "name": "userLocation",
              "type": "string"
            },
            {
              "internalType": "uint256",
              "name": "userAge",
              "type": "uint256"
            },
            {
              "internalType": "bool",
              "name": "userSigned",
              "type": "bool"
            },
            {
              "internalType": "bool",
              "name": "isseuerSigned",
              "type": "bool"
            },
            {
              "internalType": "address",
              "name": "issuerId",
              "type": "address"
            },
            {
              "internalType": "uint256",
              "name": "issueDate",
              "type": "uint256"
            }
          ],
          "internalType": "struct IShare.UserCredentials",
          "name": "",
          "type": "tuple"
        }
      ],
      "stateMutability": "view",
      "type": "function"
    },
    {
      "inputs": [
        {
          "internalType": "uint256",
          "name": "_userId",
          "type": "uint256"
        },
        {
          "internalType": "address",
          "name": "_recipientId",
          "type": "address"
        }
      ],
      "name": "giveConcent",
      "outputs": [],
      "stateMutability": "nonpayable",
      "type": "function"
    },
    {
      "inputs": [
        {
          "internalType": "uint256",
          "name": "_userId",
          "type": "uint256"
        }
      ],
      "name": "issueCredentials",
      "outputs": [],
      "stateMutability": "nonpayable",
      "type": "function"
    },
    {
      "inputs": [],
      "name": "requestConcent",
      "outputs": [],
      "stateMutability": "nonpayable",
      "type": "function"
    },
    {
      "inputs": [
        {
          "internalType": "string",
          "name": "_name",
          "type": "string"
        },
        {
          "internalType": "string",
          "name": "_location",
          "type": "string"
        },
        {
          "internalType": "uint256",
          "name": "_age",
          "type": "uint256"
        }
      ],
      "name": "requestCredentials",
      "outputs": [],
      "stateMutability": "nonpayable",
      "type": "function"
    },
    {
      "inputs": [
        {
          "internalType": "uint256",
          "name": "_userId",
          "type": "uint256"
        }
      ],
      "name": "requestedAccounts",
      "outputs": [
        {
          "internalType": "address",
          "name": "",
          "type": "address"
        }
      ],
      "stateMutability": "view",
      "type": "function"
    },
    {
      "inputs": [
        {
          "internalType": "uint256",
          "name": "_userId",
          "type": "uint256"
        },
        {
          "internalType": "address",
          "name": "recipientId",
          "type": "address"
        }
      ],
      "name": "revokeConcent",
      "outputs": [],
      "stateMutability": "nonpayable",
      "type": "function"
    },
    {
      "inputs": [
        {
          "internalType": "uint256",
          "name": "",
          "type": "uint256"
        }
      ],
      "name": "s_allUsers",
      "outputs": [
        {
          "internalType": "uint256",
          "name": "userId",
          "type": "uint256"
        },
        {
          "internalType": "address",
          "name": "userAddress",
          "type": "address"
        },
        {
          "internalType": "string",
          "name": "userName",
          "type": "string"
        },
        {
          "internalType": "string",
          "name": "userLocation",
          "type": "string"
        },
        {
          "internalType": "uint256",
          "name": "userAge",
          "type": "uint256"
        },
        {
          "internalType": "bool",
          "name": "userSigned",
          "type": "bool"
        },
        {
          "internalType": "bool",
          "name": "isseuerSigned",
          "type": "bool"
        },
        {
          "internalType": "address",
          "name": "issuerId",
          "type": "address"
        },
        {
          "internalType": "uint256",
          "name": "issueDate",
          "type": "uint256"
        }
      ],
      "stateMutability": "view",
      "type": "function"
    },
    {
      "inputs": [
        {
          "internalType": "address",
          "name": "",
          "type": "address"
        }
      ],
      "name": "s_permittedVerfier",
      "outputs": [
        {
          "internalType": "bool",
          "name": "",
          "type": "bool"
        }
      ],
      "stateMutability": "view",
      "type": "function"
    },
    {
      "inputs": [
        {
          "internalType": "uint256",
          "name": "",
          "type": "uint256"
        }
      ],
      "name": "s_requestedVerifier",
      "outputs": [
        {
          "internalType": "address",
          "name": "",
          "type": "address"
        }
      ],
      "stateMutability": "view",
      "type": "function"
    },
    {
      "inputs": [
        {
          "internalType": "uint256",
          "name": "_userId",
          "type": "uint256"
        }
      ],
      "name": "verifyUser",
      "outputs": [
        {
          "internalType": "bool",
          "name": "",
          "type": "bool"
        }
      ],
      "stateMutability": "view",
      "type": "function"
    }
  ],
  "transactionHash": "0x29db6d4b4b3d4c57f5ad6c625f3560153183b57b0a348c01f97e74ece0a738a2",
  "args": [],
  "numDeployments": 1,
  "solcInputHash": "75f21cd30adddedfd6d865776ac96f46",
  "bytecode": "0x608060405234801561001057600080fd5b5061220c806100206000396000f3fe608060405234801561001057600080fd5b50600436106101215760003560e01c8063784f8e56116100ad5780638f6a1c4a116100715780638f6a1c4a146103365780639e19a69714610352578063ec8a71e914610370578063f731bcf31461038c578063fe70e71b146103bc57610121565b8063784f8e561461028a5780637bcf0e3e146102ba57806382f0ffbe146102f25780638865fb75146102fc57806388fc3f0a1461031a57610121565b806342365eb8116100f457806342365eb8146101c05780634ac59cc1146101f05780635d73ab9a1461020e5780636281afad1461023e57806367ee65d41461025a57610121565b80630b972fcc146101265780631c9930ad14610142578063295527661461017257806335565100146101a2575b600080fd5b610140600480360381019061013b91906118af565b6103d8565b005b61015c600480360381019061015791906118af565b6105d7565b604051610169919061191d565b60405180910390f35b61018c60048036038101906101879190611964565b610614565b60405161019991906119ac565b60405180910390f35b6101aa610634565b6040516101b791906119d6565b60405180910390f35b6101da60048036038101906101d591906118af565b610645565b6040516101e791906119ac565b60405180910390f35b6101f861086c565b60405161020591906119d6565b60405180910390f35b610228600480360381019061022391906118af565b610878565b6040516102359190611b7a565b60405180910390f35b61025860048036038101906102539190611cd1565b610aca565b005b610274600480360381019061026f91906118af565b610cf0565b604051610281919061191d565b60405180910390f35b6102a4600480360381019061029f9190611964565b610d23565b6040516102b191906119ac565b60405180910390f35b6102d460048036038101906102cf91906118af565b610d79565b6040516102e999989796959493929190611da6565b60405180910390f35b6102fa610f31565b005b610304610f9e565b60405161031191906119d6565b60405180910390f35b610334600480360381019061032f9190611e41565b610faa565b005b610350600480360381019061034b91906118af565b61112e565b005b61035a611341565b60405161036791906119d6565b60405180910390f35b61038a60048036038101906103859190611e41565b611352565b005b6103a660048036038101906103a191906118af565b6114d6565b6040516103b391906119ac565b60405180910390f35b6103d660048036038101906103d191906118af565b6115a3565b005b6000600260008381526020019081526020016000206004015411610428576040517fb55fae1e00000000000000000000000000000000000000000000000000000000815260040160405180910390fd5b3373ffffffffffffffffffffffffffffffffffffffff166002600083815260200190815260200160002060010160009054906101000a900473ffffffffffffffffffffffffffffffffffffffff1673ffffffffffffffffffffffffffffffffffffffff16036104c3576040517ff4e93c5b00000000000000000000000000000000000000000000000000000000815260040160405180910390fd5b600115156002600083815260200190815260200160002060050160019054906101000a900460ff16151503610524576040517fb0bd6aca00000000000000000000000000000000000000000000000000000000815260040160405180910390fd5b336002600083815260200190815260200160002060050160026101000a81548173ffffffffffffffffffffffffffffffffffffffff021916908373ffffffffffffffffffffffffffffffffffffffff16021790555060016002600083815260200190815260200160002060050160016101000a81548160ff0219169083151502179055507f0c60052fa311dc6c6e2e2dd2fd730e75737e2e432c4a9b254a0e9b5e21edc8dd60405160405180910390a150565b60006003600083815260200190815260200160002060009054906101000a900473ffffffffffffffffffffffffffffffffffffffff169050919050565b60046020528060005260406000206000915054906101000a900460ff1681565b60006106406001611768565b905090565b60008015156002600084815260200190815260200160002060050160019054906101000a900460ff161515036106a7576040517fa72952d800000000000000000000000000000000000000000000000000000000815260040160405180910390fd5b3373ffffffffffffffffffffffffffffffffffffffff166002600084815260200190815260200160002060010160009054906101000a900473ffffffffffffffffffffffffffffffffffffffff1673ffffffffffffffffffffffffffffffffffffffff1603610742576040517ff4e93c5b00000000000000000000000000000000000000000000000000000000815260040160405180910390fd5b60011515600460003373ffffffffffffffffffffffffffffffffffffffff1673ffffffffffffffffffffffffffffffffffffffff16815260200190815260200160002060009054906101000a900460ff161515146107cc576040517f2466355600000000000000000000000000000000000000000000000000000000815260040160405180910390fd5b6000601290505b6032811161086157806040516020016107ec91906119d6565b60405160208183030381529060405280519060200120600260008581526020019081526020016000206004015460405160200161082991906119d6565b604051602081830303815290604052805190602001200361084e576001915050610867565b808061085990611eb0565b9150506107d3565b50600090505b919050565b60018060000154905081565b61088061178c565b6002600083815260200190815260200160002060405180610120016040529081600082015481526020016001820160009054906101000a900473ffffffffffffffffffffffffffffffffffffffff1673ffffffffffffffffffffffffffffffffffffffff1673ffffffffffffffffffffffffffffffffffffffff16815260200160028201805461090f90611f27565b80601f016020809104026020016040519081016040528092919081815260200182805461093b90611f27565b80156109885780601f1061095d57610100808354040283529160200191610988565b820191906000526020600020905b81548152906001019060200180831161096b57829003601f168201915b505050505081526020016003820180546109a190611f27565b80601f01602080910402602001604051908101604052809291908181526020018280546109cd90611f27565b8015610a1a5780601f106109ef57610100808354040283529160200191610a1a565b820191906000526020600020905b8154815290600101906020018083116109fd57829003601f168201915b50505050508152602001600482015481526020016005820160009054906101000a900460ff161515151581526020016005820160019054906101000a900460ff161515151581526020016005820160029054906101000a900473ffffffffffffffffffffffffffffffffffffffff1673ffffffffffffffffffffffffffffffffffffffff1673ffffffffffffffffffffffffffffffffffffffff1681526020016006820154815250509050919050565b60008111610b04576040517f3cbe35cb00000000000000000000000000000000000000000000000000000000815260040160405180910390fd5b610b0e6000611776565b6000610b1a6000611768565b90506040518061012001604052808281526020013373ffffffffffffffffffffffffffffffffffffffff168152602001858152602001848152602001838152602001600015158152602001600015158152602001600073ffffffffffffffffffffffffffffffffffffffff16815260200142815250600260008381526020019081526020016000206000820151816000015560208201518160010160006101000a81548173ffffffffffffffffffffffffffffffffffffffff021916908373ffffffffffffffffffffffffffffffffffffffff1602179055506040820151816002019081610c089190612104565b506060820151816003019081610c1e9190612104565b506080820151816004015560a08201518160050160006101000a81548160ff02191690831515021790555060c08201518160050160016101000a81548160ff02191690831515021790555060e08201518160050160026101000a81548173ffffffffffffffffffffffffffffffffffffffff021916908373ffffffffffffffffffffffffffffffffffffffff16021790555061010082015181600601559050507f565011a91c0f2ceea331fd0d11c17fa1e16cbf9231914ab1a37dce34b92860b060405160405180910390a150505050565b60036020528060005260406000206000915054906101000a900473ffffffffffffffffffffffffffffffffffffffff1681565b6000600460008373ffffffffffffffffffffffffffffffffffffffff1673ffffffffffffffffffffffffffffffffffffffff16815260200190815260200160002060009054906101000a900460ff169050919050565b60026020528060005260406000206000915090508060000154908060010160009054906101000a900473ffffffffffffffffffffffffffffffffffffffff1690806002018054610dc890611f27565b80601f0160208091040260200160405190810160405280929190818152602001828054610df490611f27565b8015610e415780601f10610e1657610100808354040283529160200191610e41565b820191906000526020600020905b815481529060010190602001808311610e2457829003601f168201915b505050505090806003018054610e5690611f27565b80601f0160208091040260200160405190810160405280929190818152602001828054610e8290611f27565b8015610ecf5780601f10610ea457610100808354040283529160200191610ecf565b820191906000526020600020905b815481529060010190602001808311610eb257829003601f168201915b5050505050908060040154908060050160009054906101000a900460ff16908060050160019054906101000a900460ff16908060050160029054906101000a900473ffffffffffffffffffffffffffffffffffffffff16908060060154905089565b610f3b6001611776565b6000610f476001611768565b9050336003600083815260200190815260200160002060006101000a81548173ffffffffffffffffffffffffffffffffffffffff021916908373ffffffffffffffffffffffffffffffffffffffff16021790555050565b60008060000154905081565b3373ffffffffffffffffffffffffffffffffffffffff166002600084815260200190815260200160002060010160009054906101000a900473ffffffffffffffffffffffffffffffffffffffff1673ffffffffffffffffffffffffffffffffffffffff1614611045576040517f30cd747100000000000000000000000000000000000000000000000000000000815260040160405180910390fd5b600015156002600084815260200190815260200160002060050160019054906101000a900460ff161515036110a6576040517fa72952d800000000000000000000000000000000000000000000000000000000815260040160405180910390fd5b6000600460008373ffffffffffffffffffffffffffffffffffffffff1673ffffffffffffffffffffffffffffffffffffffff16815260200190815260200160002060006101000a81548160ff0219169083151502179055507f393d92a2bfd12ed1a2903ef3453111d3f3ccffa03ede9a02ba3932225eb30b0860405160405180910390a15050565b600060026000838152602001908152602001600020600401541161117e576040517fb55fae1e00000000000000000000000000000000000000000000000000000000815260040160405180910390fd5b3373ffffffffffffffffffffffffffffffffffffffff166002600083815260200190815260200160002060010160009054906101000a900473ffffffffffffffffffffffffffffffffffffffff1673ffffffffffffffffffffffffffffffffffffffff1603611219576040517ff4e93c5b00000000000000000000000000000000000000000000000000000000815260040160405180910390fd5b600115156002600083815260200190815260200160002060050160019054906101000a900460ff1615150361127a576040517fb0bd6aca00000000000000000000000000000000000000000000000000000000815260040160405180910390fd5b600260008281526020019081526020016000206000808201600090556001820160006101000a81549073ffffffffffffffffffffffffffffffffffffffff02191690556002820160006112cd9190611808565b6003820160006112dd9190611808565b60048201600090556005820160006101000a81549060ff02191690556005820160016101000a81549060ff02191690556005820160026101000a81549073ffffffffffffffffffffffffffffffffffffffff02191690556006820160009055505050565b600061134d6000611768565b905090565b3373ffffffffffffffffffffffffffffffffffffffff166002600084815260200190815260200160002060010160009054906101000a900473ffffffffffffffffffffffffffffffffffffffff1673ffffffffffffffffffffffffffffffffffffffff16146113ed576040517f30cd747100000000000000000000000000000000000000000000000000000000815260040160405180910390fd5b600015156002600084815260200190815260200160002060050160019054906101000a900460ff1615150361144e576040517fa72952d800000000000000000000000000000000000000000000000000000000815260040160405180910390fd5b6001600460008373ffffffffffffffffffffffffffffffffffffffff1673ffffffffffffffffffffffffffffffffffffffff16815260200190815260200160002060006101000a81548160ff0219169083151502179055507fc003cdc0e3a1aed0b7bfd60d36a3d0adcb2a5fb7df58cd086261e88b421ca38860405160405180910390a15050565b60008015156002600084815260200190815260200160002060050160019054906101000a900460ff16151503611538576040517fa72952d800000000000000000000000000000000000000000000000000000000815260040160405180910390fd5b60011515600460003373ffffffffffffffffffffffffffffffffffffffff1673ffffffffffffffffffffffffffffffffffffffff16815260200190815260200160002060009054906101000a900460ff16151503611599576001905061159e565b600090505b919050565b60006002600083815260200190815260200160002060040154116115f3576040517fb55fae1e00000000000000000000000000000000000000000000000000000000815260040160405180910390fd5b3373ffffffffffffffffffffffffffffffffffffffff166002600083815260200190815260200160002060010160009054906101000a900473ffffffffffffffffffffffffffffffffffffffff1673ffffffffffffffffffffffffffffffffffffffff161461168e576040517f30cd747100000000000000000000000000000000000000000000000000000000815260040160405180910390fd5b600015156002600083815260200190815260200160002060050160019054906101000a900460ff161515036116ef576040517fa72952d800000000000000000000000000000000000000000000000000000000815260040160405180910390fd5b60016002600083815260200190815260200160002060050160006101000a81548160ff0219169083151502179055504260026000838152602001908152602001600020600601819055507f1fbdb707c446b25b4bd13645713aad45db36836dd2c0e865016596bdec3e2a5c60405160405180910390a150565b600081600001549050919050565b6001816000016000828254019250508190555050565b60405180610120016040528060008152602001600073ffffffffffffffffffffffffffffffffffffffff168152602001606081526020016060815260200160008152602001600015158152602001600015158152602001600073ffffffffffffffffffffffffffffffffffffffff168152602001600081525090565b50805461181490611f27565b6000825580601f106118265750611845565b601f0160209004906000526020600020908101906118449190611848565b5b50565b5b80821115611861576000816000905550600101611849565b5090565b6000604051905090565b600080fd5b600080fd5b6000819050919050565b61188c81611879565b811461189757600080fd5b50565b6000813590506118a981611883565b92915050565b6000602082840312156118c5576118c461186f565b5b60006118d38482850161189a565b91505092915050565b600073ffffffffffffffffffffffffffffffffffffffff82169050919050565b6000611907826118dc565b9050919050565b611917816118fc565b82525050565b6000602082019050611932600083018461190e565b92915050565b611941816118fc565b811461194c57600080fd5b50565b60008135905061195e81611938565b92915050565b60006020828403121561197a5761197961186f565b5b60006119888482850161194f565b91505092915050565b60008115159050919050565b6119a681611991565b82525050565b60006020820190506119c1600083018461199d565b92915050565b6119d081611879565b82525050565b60006020820190506119eb60008301846119c7565b92915050565b6119fa81611879565b82525050565b611a09816118fc565b82525050565b600081519050919050565b600082825260208201905092915050565b60005b83811015611a49578082015181840152602081019050611a2e565b60008484015250505050565b6000601f19601f8301169050919050565b6000611a7182611a0f565b611a7b8185611a1a565b9350611a8b818560208601611a2b565b611a9481611a55565b840191505092915050565b611aa881611991565b82525050565b600061012083016000830151611ac760008601826119f1565b506020830151611ada6020860182611a00565b5060408301518482036040860152611af28282611a66565b91505060608301518482036060860152611b0c8282611a66565b9150506080830151611b2160808601826119f1565b5060a0830151611b3460a0860182611a9f565b5060c0830151611b4760c0860182611a9f565b5060e0830151611b5a60e0860182611a00565b50610100830151611b6f6101008601826119f1565b508091505092915050565b60006020820190508181036000830152611b948184611aae565b905092915050565b600080fd5b600080fd5b7f4e487b7100000000000000000000000000000000000000000000000000000000600052604160045260246000fd5b611bde82611a55565b810181811067ffffffffffffffff82111715611bfd57611bfc611ba6565b5b80604052505050565b6000611c10611865565b9050611c1c8282611bd5565b919050565b600067ffffffffffffffff821115611c3c57611c3b611ba6565b5b611c4582611a55565b9050602081019050919050565b82818337600083830152505050565b6000611c74611c6f84611c21565b611c06565b905082815260208101848484011115611c9057611c8f611ba1565b5b611c9b848285611c52565b509392505050565b600082601f830112611cb857611cb7611b9c565b5b8135611cc8848260208601611c61565b91505092915050565b600080600060608486031215611cea57611ce961186f565b5b600084013567ffffffffffffffff811115611d0857611d07611874565b5b611d1486828701611ca3565b935050602084013567ffffffffffffffff811115611d3557611d34611874565b5b611d4186828701611ca3565b9250506040611d528682870161189a565b9150509250925092565b600082825260208201905092915050565b6000611d7882611a0f565b611d828185611d5c565b9350611d92818560208601611a2b565b611d9b81611a55565b840191505092915050565b600061012082019050611dbc600083018c6119c7565b611dc9602083018b61190e565b8181036040830152611ddb818a611d6d565b90508181036060830152611def8189611d6d565b9050611dfe60808301886119c7565b611e0b60a083018761199d565b611e1860c083018661199d565b611e2560e083018561190e565b611e336101008301846119c7565b9a9950505050505050505050565b60008060408385031215611e5857611e5761186f565b5b6000611e668582860161189a565b9250506020611e778582860161194f565b9150509250929050565b7f4e487b7100000000000000000000000000000000000000000000000000000000600052601160045260246000fd5b6000611ebb82611879565b91507fffffffffffffffffffffffffffffffffffffffffffffffffffffffffffffffff8203611eed57611eec611e81565b5b600182019050919050565b7f4e487b7100000000000000000000000000000000000000000000000000000000600052602260045260246000fd5b60006002820490506001821680611f3f57607f821691505b602082108103611f5257611f51611ef8565b5b50919050565b60008190508160005260206000209050919050565b60006020601f8301049050919050565b600082821b905092915050565b600060088302611fba7fffffffffffffffffffffffffffffffffffffffffffffffffffffffffffffffff82611f7d565b611fc48683611f7d565b95508019841693508086168417925050509392505050565b6000819050919050565b6000612001611ffc611ff784611879565b611fdc565b611879565b9050919050565b6000819050919050565b61201b83611fe6565b61202f61202782612008565b848454611f8a565b825550505050565b600090565b612044612037565b61204f818484612012565b505050565b5b818110156120735761206860008261203c565b600181019050612055565b5050565b601f8211156120b85761208981611f58565b61209284611f6d565b810160208510156120a1578190505b6120b56120ad85611f6d565b830182612054565b50505b505050565b600082821c905092915050565b60006120db600019846008026120bd565b1980831691505092915050565b60006120f483836120ca565b9150826002028217905092915050565b61210d82611a0f565b67ffffffffffffffff81111561212657612125611ba6565b5b6121308254611f27565b61213b828285612077565b600060209050601f83116001811461216e576000841561215c578287015190505b61216685826120e8565b8655506121ce565b601f19841661217c86611f58565b60005b828110156121a45784890151825560018201915060208501945060208101905061217f565b868310156121c157848901516121bd601f8916826120ca565b8355505b6001600288020188555050505b50505050505056fea26469706673582212200e250dd964befce047276aa4b79c815ddcc586b866ce857a85266bff0e4e016364736f6c63430008110033",
  "devdoc": {
    "kind": "dev",
    "methods": {},
    "version": 1
  },
  "userdoc": {
    "kind": "user",
    "methods": {},
    "version": 1
  },
  "storageLayout": {
    "storage": [
      {
        "astId": 97,
        "contract": "contracts/Ishare.sol:IShare",
        "label": "_userID",
        "offset": 0,
        "slot": "0",
        "type": "t_struct(Counter)5_storage"
      },
      {
        "astId": 100,
        "contract": "contracts/Ishare.sol:IShare",
        "label": "_requestedID",
        "offset": 0,
        "slot": "1",
        "type": "t_struct(Counter)5_storage"
      },
      {
        "astId": 124,
        "contract": "contracts/Ishare.sol:IShare",
        "label": "s_allUsers",
        "offset": 0,
        "slot": "2",
        "type": "t_mapping(t_uint256,t_struct(UserCredentials)119_storage)"
      },
      {
        "astId": 128,
        "contract": "contracts/Ishare.sol:IShare",
        "label": "s_requestedVerifier",
        "offset": 0,
        "slot": "3",
        "type": "t_mapping(t_uint256,t_address)"
      },
      {
        "astId": 132,
        "contract": "contracts/Ishare.sol:IShare",
        "label": "s_permittedVerfier",
        "offset": 0,
        "slot": "4",
        "type": "t_mapping(t_address,t_bool)"
      }
    ],
    "types": {
      "t_address": {
        "encoding": "inplace",
        "label": "address",
        "numberOfBytes": "20"
      },
      "t_bool": {
        "encoding": "inplace",
        "label": "bool",
        "numberOfBytes": "1"
      },
      "t_mapping(t_address,t_bool)": {
        "encoding": "mapping",
        "key": "t_address",
        "label": "mapping(address => bool)",
        "numberOfBytes": "32",
        "value": "t_bool"
      },
      "t_mapping(t_uint256,t_address)": {
        "encoding": "mapping",
        "key": "t_uint256",
        "label": "mapping(uint256 => address)",
        "numberOfBytes": "32",
        "value": "t_address"
      },
      "t_mapping(t_uint256,t_struct(UserCredentials)119_storage)": {
        "encoding": "mapping",
        "key": "t_uint256",
        "label": "mapping(uint256 => struct IShare.UserCredentials)",
        "numberOfBytes": "32",
        "value": "t_struct(UserCredentials)119_storage"
      },
      "t_string_storage": {
        "encoding": "bytes",
        "label": "string",
        "numberOfBytes": "32"
      },
      "t_struct(Counter)5_storage": {
        "encoding": "inplace",
        "label": "struct Counters.Counter",
        "members": [
          {
            "astId": 4,
            "contract": "contracts/Ishare.sol:IShare",
            "label": "_value",
            "offset": 0,
            "slot": "0",
            "type": "t_uint256"
          }
        ],
        "numberOfBytes": "32"
      },
      "t_struct(UserCredentials)119_storage": {
        "encoding": "inplace",
        "label": "struct IShare.UserCredentials",
        "members": [
          {
            "astId": 102,
            "contract": "contracts/Ishare.sol:IShare",
            "label": "userId",
            "offset": 0,
            "slot": "0",
            "type": "t_uint256"
          },
          {
            "astId": 104,
            "contract": "contracts/Ishare.sol:IShare",
            "label": "userAddress",
            "offset": 0,
            "slot": "1",
            "type": "t_address"
          },
          {
            "astId": 106,
            "contract": "contracts/Ishare.sol:IShare",
            "label": "userName",
            "offset": 0,
            "slot": "2",
            "type": "t_string_storage"
          },
          {
            "astId": 108,
            "contract": "contracts/Ishare.sol:IShare",
            "label": "userLocation",
            "offset": 0,
            "slot": "3",
            "type": "t_string_storage"
          },
          {
            "astId": 110,
            "contract": "contracts/Ishare.sol:IShare",
            "label": "userAge",
            "offset": 0,
            "slot": "4",
            "type": "t_uint256"
          },
          {
            "astId": 112,
            "contract": "contracts/Ishare.sol:IShare",
            "label": "userSigned",
            "offset": 0,
            "slot": "5",
            "type": "t_bool"
          },
          {
            "astId": 114,
            "contract": "contracts/Ishare.sol:IShare",
            "label": "isseuerSigned",
            "offset": 1,
            "slot": "5",
            "type": "t_bool"
          },
          {
            "astId": 116,
            "contract": "contracts/Ishare.sol:IShare",
            "label": "issuerId",
            "offset": 2,
            "slot": "5",
            "type": "t_address"
          },
          {
            "astId": 118,
            "contract": "contracts/Ishare.sol:IShare",
            "label": "issueDate",
            "offset": 0,
            "slot": "6",
            "type": "t_uint256"
          }
        ],
        "numberOfBytes": "224"
      },
      "t_uint256": {
        "encoding": "inplace",
        "label": "uint256",
        "numberOfBytes": "32"
      }
    }
  }
}