{
  "address": "0x687b9C69fa5Cc26a3B14CfB795795af8C50Bd204",
  "abi": [
    {
      "inputs": [],
      "name": "AlreadySigned",
      "type": "error"
    },
    {
      "inputs": [],
      "name": "NotOwner",
      "type": "error"
    },
    {
      "inputs": [],
      "name": "NotRequestedYet",
      "type": "error"
    },
    {
      "inputs": [],
      "name": "NotSigned",
      "type": "error"
    },
    {
      "inputs": [],
      "name": "NotValidInput",
      "type": "error"
    },
    {
      "inputs": [],
      "name": "NotVerifier",
      "type": "error"
    },
    {
      "inputs": [],
      "name": "SamePerson",
      "type": "error"
    },
    {
      "anonymous": false,
      "inputs": [],
      "name": "ConcentRevoked",
      "type": "event"
    },
    {
      "anonymous": false,
      "inputs": [],
      "name": "CredentialsAcepted",
      "type": "event"
    },
    {
      "anonymous": false,
      "inputs": [],
      "name": "CredentialsIssued",
      "type": "event"
    },
    {
      "anonymous": false,
      "inputs": [],
      "name": "GiveConcent",
      "type": "event"
    },
    {
      "anonymous": false,
      "inputs": [],
      "name": "RequestSent",
      "type": "event"
    },
    {
      "inputs": [],
      "name": "_requestedID",
      "outputs": [
        {
          "internalType": "uint256",
          "name": "_value",
          "type": "uint256"
        }
      ],
      "stateMutability": "view",
      "type": "function"
    },
    {
      "inputs": [],
      "name": "_userID",
      "outputs": [
        {
          "internalType": "uint256",
          "name": "_value",
          "type": "uint256"
        }
      ],
      "stateMutability": "view",
      "type": "function"
    },
    {
      "inputs": [
        {
          "internalType": "uint256",
          "name": "_userId",
          "type": "uint256"
        }
      ],
      "name": "acceptCredentials",
      "outputs": [],
      "stateMutability": "nonpayable",
      "type": "function"
    },
    {
      "inputs": [
        {
          "internalType": "uint256",
          "name": "_userId",
          "type": "uint256"
        }
      ],
      "name": "checkConcent",
      "outputs": [
        {
          "internalType": "bool",
          "name": "",
          "type": "bool"
        }
      ],
      "stateMutability": "view",
      "type": "function"
    },
    {
      "inputs": [
        {
          "internalType": "uint256",
          "name": "_userId",
          "type": "uint256"
        }
      ],
      "name": "dismissRequest",
      "outputs": [],
      "stateMutability": "nonpayable",
      "type": "function"
    },
    {
      "inputs": [],
      "name": "getCurrentUserId",
      "outputs": [
        {
          "internalType": "uint256",
          "name": "",
          "type": "uint256"
        }
      ],
      "stateMutability": "view",
      "type": "function"
    },
    {
      "inputs": [],
      "name": "getCurrentrecipientId",
      "outputs": [
        {
          "internalType": "uint256",
          "name": "",
          "type": "uint256"
        }
      ],
      "stateMutability": "view",
      "type": "function"
    },
    {
      "inputs": [
        {
          "internalType": "address",
          "name": "_verifierAddress",
          "type": "address"
        }
      ],
      "name": "getPermittedVerifier",
      "outputs": [
        {
          "internalType": "bool",
          "name": "",
          "type": "bool"
        }
      ],
      "stateMutability": "view",
      "type": "function"
    },
    {
      "inputs": [
        {
          "internalType": "uint256",
          "name": "_userCurrentId",
          "type": "uint256"
        }
      ],
      "name": "getUsers",
      "outputs": [
        {
          "components": [
            {
              "internalType": "uint256",
              "name": "userId",
              "type": "uint256"
            },
            {
              "internalType": "address",
              "name": "userAddress",
              "type": "address"
            },
            {
              "internalType": "string",
              "name": "userName",
              "type": "string"
            },
            {
              "internalType": "string",
              "name": "userLocation",
              "type": "string"
            },
            {
              "internalType": "uint256",
              "name": "userAge",
              "type": "uint256"
            },
            {
              "internalType": "bool",
              "name": "userSigned",
              "type": "bool"
            },
            {
              "internalType": "bool",
              "name": "isseuerSigned",
              "type": "bool"
            },
            {
              "internalType": "address",
              "name": "issuerId",
              "type": "address"
            },
            {
              "internalType": "uint256",
              "name": "issueDate",
              "type": "uint256"
            }
          ],
          "internalType": "struct IShare.UserCredentials",
          "name": "",
          "type": "tuple"
        }
      ],
      "stateMutability": "view",
      "type": "function"
    },
    {
      "inputs": [
        {
          "internalType": "uint256",
          "name": "_userId",
          "type": "uint256"
        },
        {
          "internalType": "uint256",
          "name": "_recipientId",
          "type": "uint256"
        },
        {
          "internalType": "address",
          "name": "recipientId",
          "type": "address"
        }
      ],
      "name": "giveConcent",
      "outputs": [],
      "stateMutability": "nonpayable",
      "type": "function"
    },
    {
      "inputs": [
        {
          "internalType": "uint256",
          "name": "_userId",
          "type": "uint256"
        }
      ],
      "name": "issueCredentials",
      "outputs": [],
      "stateMutability": "nonpayable",
      "type": "function"
    },
    {
      "inputs": [],
      "name": "requestConcent",
      "outputs": [],
      "stateMutability": "nonpayable",
      "type": "function"
    },
    {
      "inputs": [
        {
          "internalType": "string",
          "name": "_name",
          "type": "string"
        },
        {
          "internalType": "string",
          "name": "_location",
          "type": "string"
        },
        {
          "internalType": "uint256",
          "name": "_age",
          "type": "uint256"
        }
      ],
      "name": "requestCredentials",
      "outputs": [],
      "stateMutability": "nonpayable",
      "type": "function"
    },
    {
      "inputs": [
        {
          "internalType": "uint256",
          "name": "_userId",
          "type": "uint256"
        }
      ],
      "name": "requestedAccounts",
      "outputs": [
        {
          "internalType": "address",
          "name": "",
          "type": "address"
        }
      ],
      "stateMutability": "view",
      "type": "function"
    },
    {
      "inputs": [
        {
          "internalType": "uint256",
          "name": "_userId",
          "type": "uint256"
        },
        {
          "internalType": "address",
          "name": "recipientId",
          "type": "address"
        }
      ],
      "name": "revokeConcent",
      "outputs": [],
      "stateMutability": "nonpayable",
      "type": "function"
    },
    {
      "inputs": [
        {
          "internalType": "uint256",
          "name": "",
          "type": "uint256"
        }
      ],
      "name": "s_allUsers",
      "outputs": [
        {
          "internalType": "uint256",
          "name": "userId",
          "type": "uint256"
        },
        {
          "internalType": "address",
          "name": "userAddress",
          "type": "address"
        },
        {
          "internalType": "string",
          "name": "userName",
          "type": "string"
        },
        {
          "internalType": "string",
          "name": "userLocation",
          "type": "string"
        },
        {
          "internalType": "uint256",
          "name": "userAge",
          "type": "uint256"
        },
        {
          "internalType": "bool",
          "name": "userSigned",
          "type": "bool"
        },
        {
          "internalType": "bool",
          "name": "isseuerSigned",
          "type": "bool"
        },
        {
          "internalType": "address",
          "name": "issuerId",
          "type": "address"
        },
        {
          "internalType": "uint256",
          "name": "issueDate",
          "type": "uint256"
        }
      ],
      "stateMutability": "view",
      "type": "function"
    },
    {
      "inputs": [
        {
          "internalType": "address",
          "name": "",
          "type": "address"
        }
      ],
      "name": "s_permittedVerfier",
      "outputs": [
        {
          "internalType": "bool",
          "name": "",
          "type": "bool"
        }
      ],
      "stateMutability": "view",
      "type": "function"
    },
    {
      "inputs": [
        {
          "internalType": "uint256",
          "name": "",
          "type": "uint256"
        }
      ],
      "name": "s_requestedVerifier",
      "outputs": [
        {
          "internalType": "address",
          "name": "",
          "type": "address"
        }
      ],
      "stateMutability": "view",
      "type": "function"
    },
    {
      "inputs": [
        {
          "internalType": "uint256",
          "name": "_userId",
          "type": "uint256"
        }
      ],
      "name": "verifyUser",
      "outputs": [
        {
          "internalType": "bool",
          "name": "",
          "type": "bool"
        }
      ],
      "stateMutability": "view",
      "type": "function"
    }
  ],
  "transactionHash": "0xcc3f41ac5e641ff397bb421d4d2743d5070eac2c78c97c81922b4eb58d938347",
  "args": [],
  "numDeployments": 2,
  "solcInputHash": "1e0df51efd10b3ff05213767ebd0c390",
  "bytecode": "0x608060405234801561001057600080fd5b506122f8806100206000396000f3fe608060405234801561001057600080fd5b50600436106101215760003560e01c8063784f8e56116100ad5780638f6a1c4a116100715780638f6a1c4a146103365780639e19a69714610352578063ce4a71e314610370578063f731bcf31461038c578063fe70e71b146103bc57610121565b8063784f8e561461028a5780637bcf0e3e146102ba57806382f0ffbe146102f25780638865fb75146102fc57806388fc3f0a1461031a57610121565b806342365eb8116100f457806342365eb8146101c05780634ac59cc1146101f05780635d73ab9a1461020e5780636281afad1461023e57806367ee65d41461025a57610121565b80630b972fcc146101265780631c9930ad14610142578063295527661461017257806335565100146101a2575b600080fd5b610140600480360381019061013b9190611948565b6103d8565b005b61015c60048036038101906101579190611948565b6105d7565b60405161016991906119b6565b60405180910390f35b61018c600480360381019061018791906119fd565b610614565b6040516101999190611a45565b60405180910390f35b6101aa610634565b6040516101b79190611a6f565b60405180910390f35b6101da60048036038101906101d59190611948565b610645565b6040516101e79190611a45565b60405180910390f35b6101f861086c565b6040516102059190611a6f565b60405180910390f35b61022860048036038101906102239190611948565b610878565b6040516102359190611c13565b60405180910390f35b61025860048036038101906102539190611d6a565b610aca565b005b610274600480360381019061026f9190611948565b610cf0565b60405161028191906119b6565b60405180910390f35b6102a4600480360381019061029f91906119fd565b610d23565b6040516102b19190611a45565b60405180910390f35b6102d460048036038101906102cf9190611948565b610d79565b6040516102e999989796959493929190611e3f565b60405180910390f35b6102fa610f31565b005b610304610f9e565b6040516103119190611a6f565b60405180910390f35b610334600480360381019061032f9190611eda565b610faa565b005b610350600480360381019061034b9190611948565b61112e565b005b61035a611341565b6040516103679190611a6f565b60405180910390f35b61038a60048036038101906103859190611f1a565b611352565b005b6103a660048036038101906103a19190611948565b61156f565b6040516103b39190611a45565b60405180910390f35b6103d660048036038101906103d19190611948565b61163c565b005b6000600260008381526020019081526020016000206004015411610428576040517fb55fae1e00000000000000000000000000000000000000000000000000000000815260040160405180910390fd5b3373ffffffffffffffffffffffffffffffffffffffff166002600083815260200190815260200160002060010160009054906101000a900473ffffffffffffffffffffffffffffffffffffffff1673ffffffffffffffffffffffffffffffffffffffff16036104c3576040517ff4e93c5b00000000000000000000000000000000000000000000000000000000815260040160405180910390fd5b600115156002600083815260200190815260200160002060050160019054906101000a900460ff16151503610524576040517fb0bd6aca00000000000000000000000000000000000000000000000000000000815260040160405180910390fd5b336002600083815260200190815260200160002060050160026101000a81548173ffffffffffffffffffffffffffffffffffffffff021916908373ffffffffffffffffffffffffffffffffffffffff16021790555060016002600083815260200190815260200160002060050160016101000a81548160ff0219169083151502179055507f0c60052fa311dc6c6e2e2dd2fd730e75737e2e432c4a9b254a0e9b5e21edc8dd60405160405180910390a150565b60006003600083815260200190815260200160002060009054906101000a900473ffffffffffffffffffffffffffffffffffffffff169050919050565b60046020528060005260406000206000915054906101000a900460ff1681565b60006106406001611801565b905090565b60008015156002600084815260200190815260200160002060050160019054906101000a900460ff161515036106a7576040517fa72952d800000000000000000000000000000000000000000000000000000000815260040160405180910390fd5b3373ffffffffffffffffffffffffffffffffffffffff166002600084815260200190815260200160002060010160009054906101000a900473ffffffffffffffffffffffffffffffffffffffff1673ffffffffffffffffffffffffffffffffffffffff1603610742576040517ff4e93c5b00000000000000000000000000000000000000000000000000000000815260040160405180910390fd5b60011515600460003373ffffffffffffffffffffffffffffffffffffffff1673ffffffffffffffffffffffffffffffffffffffff16815260200190815260200160002060009054906101000a900460ff161515146107cc576040517f2466355600000000000000000000000000000000000000000000000000000000815260040160405180910390fd5b6000601290505b6032811161086157806040516020016107ec9190611a6f565b6040516020818303038152906040528051906020012060026000858152602001908152602001600020600401546040516020016108299190611a6f565b604051602081830303815290604052805190602001200361084e576001915050610867565b808061085990611f9c565b9150506107d3565b50600090505b919050565b60018060000154905081565b610880611825565b6002600083815260200190815260200160002060405180610120016040529081600082015481526020016001820160009054906101000a900473ffffffffffffffffffffffffffffffffffffffff1673ffffffffffffffffffffffffffffffffffffffff1673ffffffffffffffffffffffffffffffffffffffff16815260200160028201805461090f90612013565b80601f016020809104026020016040519081016040528092919081815260200182805461093b90612013565b80156109885780601f1061095d57610100808354040283529160200191610988565b820191906000526020600020905b81548152906001019060200180831161096b57829003601f168201915b505050505081526020016003820180546109a190612013565b80601f01602080910402602001604051908101604052809291908181526020018280546109cd90612013565b8015610a1a5780601f106109ef57610100808354040283529160200191610a1a565b820191906000526020600020905b8154815290600101906020018083116109fd57829003601f168201915b50505050508152602001600482015481526020016005820160009054906101000a900460ff161515151581526020016005820160019054906101000a900460ff161515151581526020016005820160029054906101000a900473ffffffffffffffffffffffffffffffffffffffff1673ffffffffffffffffffffffffffffffffffffffff1673ffffffffffffffffffffffffffffffffffffffff1681526020016006820154815250509050919050565b60008111610b04576040517f3cbe35cb00000000000000000000000000000000000000000000000000000000815260040160405180910390fd5b610b0e600061180f565b6000610b1a6000611801565b90506040518061012001604052808281526020013373ffffffffffffffffffffffffffffffffffffffff168152602001858152602001848152602001838152602001600015158152602001600015158152602001600073ffffffffffffffffffffffffffffffffffffffff16815260200142815250600260008381526020019081526020016000206000820151816000015560208201518160010160006101000a81548173ffffffffffffffffffffffffffffffffffffffff021916908373ffffffffffffffffffffffffffffffffffffffff1602179055506040820151816002019081610c0891906121f0565b506060820151816003019081610c1e91906121f0565b506080820151816004015560a08201518160050160006101000a81548160ff02191690831515021790555060c08201518160050160016101000a81548160ff02191690831515021790555060e08201518160050160026101000a81548173ffffffffffffffffffffffffffffffffffffffff021916908373ffffffffffffffffffffffffffffffffffffffff16021790555061010082015181600601559050507f565011a91c0f2ceea331fd0d11c17fa1e16cbf9231914ab1a37dce34b92860b060405160405180910390a150505050565b60036020528060005260406000206000915054906101000a900473ffffffffffffffffffffffffffffffffffffffff1681565b6000600460008373ffffffffffffffffffffffffffffffffffffffff1673ffffffffffffffffffffffffffffffffffffffff16815260200190815260200160002060009054906101000a900460ff169050919050565b60026020528060005260406000206000915090508060000154908060010160009054906101000a900473ffffffffffffffffffffffffffffffffffffffff1690806002018054610dc890612013565b80601f0160208091040260200160405190810160405280929190818152602001828054610df490612013565b8015610e415780601f10610e1657610100808354040283529160200191610e41565b820191906000526020600020905b815481529060010190602001808311610e2457829003601f168201915b505050505090806003018054610e5690612013565b80601f0160208091040260200160405190810160405280929190818152602001828054610e8290612013565b8015610ecf5780601f10610ea457610100808354040283529160200191610ecf565b820191906000526020600020905b815481529060010190602001808311610eb257829003601f168201915b5050505050908060040154908060050160009054906101000a900460ff16908060050160019054906101000a900460ff16908060050160029054906101000a900473ffffffffffffffffffffffffffffffffffffffff16908060060154905089565b610f3b600161180f565b6000610f476001611801565b9050336003600083815260200190815260200160002060006101000a81548173ffffffffffffffffffffffffffffffffffffffff021916908373ffffffffffffffffffffffffffffffffffffffff16021790555050565b60008060000154905081565b3373ffffffffffffffffffffffffffffffffffffffff166002600084815260200190815260200160002060010160009054906101000a900473ffffffffffffffffffffffffffffffffffffffff1673ffffffffffffffffffffffffffffffffffffffff1614611045576040517f30cd747100000000000000000000000000000000000000000000000000000000815260040160405180910390fd5b600015156002600084815260200190815260200160002060050160019054906101000a900460ff161515036110a6576040517fa72952d800000000000000000000000000000000000000000000000000000000815260040160405180910390fd5b6000600460008373ffffffffffffffffffffffffffffffffffffffff1673ffffffffffffffffffffffffffffffffffffffff16815260200190815260200160002060006101000a81548160ff0219169083151502179055507f393d92a2bfd12ed1a2903ef3453111d3f3ccffa03ede9a02ba3932225eb30b0860405160405180910390a15050565b600060026000838152602001908152602001600020600401541161117e576040517fb55fae1e00000000000000000000000000000000000000000000000000000000815260040160405180910390fd5b3373ffffffffffffffffffffffffffffffffffffffff166002600083815260200190815260200160002060010160009054906101000a900473ffffffffffffffffffffffffffffffffffffffff1673ffffffffffffffffffffffffffffffffffffffff1603611219576040517ff4e93c5b00000000000000000000000000000000000000000000000000000000815260040160405180910390fd5b600115156002600083815260200190815260200160002060050160019054906101000a900460ff1615150361127a576040517fb0bd6aca00000000000000000000000000000000000000000000000000000000815260040160405180910390fd5b600260008281526020019081526020016000206000808201600090556001820160006101000a81549073ffffffffffffffffffffffffffffffffffffffff02191690556002820160006112cd91906118a1565b6003820160006112dd91906118a1565b60048201600090556005820160006101000a81549060ff02191690556005820160016101000a81549060ff02191690556005820160026101000a81549073ffffffffffffffffffffffffffffffffffffffff02191690556006820160009055505050565b600061134d6000611801565b905090565b3373ffffffffffffffffffffffffffffffffffffffff166002600085815260200190815260200160002060010160009054906101000a900473ffffffffffffffffffffffffffffffffffffffff1673ffffffffffffffffffffffffffffffffffffffff16146113ed576040517f30cd747100000000000000000000000000000000000000000000000000000000815260040160405180910390fd5b600015156002600085815260200190815260200160002060050160019054906101000a900460ff1615150361144e576040517fa72952d800000000000000000000000000000000000000000000000000000000815260040160405180910390fd5b8073ffffffffffffffffffffffffffffffffffffffff166003600084815260200190815260200160002060009054906101000a900473ffffffffffffffffffffffffffffffffffffffff1673ffffffffffffffffffffffffffffffffffffffff16146114e6576040517fb55fae1e00000000000000000000000000000000000000000000000000000000815260040160405180910390fd5b6001600460008373ffffffffffffffffffffffffffffffffffffffff1673ffffffffffffffffffffffffffffffffffffffff16815260200190815260200160002060006101000a81548160ff0219169083151502179055507fc003cdc0e3a1aed0b7bfd60d36a3d0adcb2a5fb7df58cd086261e88b421ca38860405160405180910390a1505050565b60008015156002600084815260200190815260200160002060050160019054906101000a900460ff161515036115d1576040517fa72952d800000000000000000000000000000000000000000000000000000000815260040160405180910390fd5b60011515600460003373ffffffffffffffffffffffffffffffffffffffff1673ffffffffffffffffffffffffffffffffffffffff16815260200190815260200160002060009054906101000a900460ff161515036116325760019050611637565b600090505b919050565b600060026000838152602001908152602001600020600401541161168c576040517fb55fae1e00000000000000000000000000000000000000000000000000000000815260040160405180910390fd5b3373ffffffffffffffffffffffffffffffffffffffff166002600083815260200190815260200160002060010160009054906101000a900473ffffffffffffffffffffffffffffffffffffffff1673ffffffffffffffffffffffffffffffffffffffff1614611727576040517f30cd747100000000000000000000000000000000000000000000000000000000815260040160405180910390fd5b600015156002600083815260200190815260200160002060050160019054906101000a900460ff16151503611788576040517fa72952d800000000000000000000000000000000000000000000000000000000815260040160405180910390fd5b60016002600083815260200190815260200160002060050160006101000a81548160ff0219169083151502179055504260026000838152602001908152602001600020600601819055507f1fbdb707c446b25b4bd13645713aad45db36836dd2c0e865016596bdec3e2a5c60405160405180910390a150565b600081600001549050919050565b6001816000016000828254019250508190555050565b60405180610120016040528060008152602001600073ffffffffffffffffffffffffffffffffffffffff168152602001606081526020016060815260200160008152602001600015158152602001600015158152602001600073ffffffffffffffffffffffffffffffffffffffff168152602001600081525090565b5080546118ad90612013565b6000825580601f106118bf57506118de565b601f0160209004906000526020600020908101906118dd91906118e1565b5b50565b5b808211156118fa5760008160009055506001016118e2565b5090565b6000604051905090565b600080fd5b600080fd5b6000819050919050565b61192581611912565b811461193057600080fd5b50565b6000813590506119428161191c565b92915050565b60006020828403121561195e5761195d611908565b5b600061196c84828501611933565b91505092915050565b600073ffffffffffffffffffffffffffffffffffffffff82169050919050565b60006119a082611975565b9050919050565b6119b081611995565b82525050565b60006020820190506119cb60008301846119a7565b92915050565b6119da81611995565b81146119e557600080fd5b50565b6000813590506119f7816119d1565b92915050565b600060208284031215611a1357611a12611908565b5b6000611a21848285016119e8565b91505092915050565b60008115159050919050565b611a3f81611a2a565b82525050565b6000602082019050611a5a6000830184611a36565b92915050565b611a6981611912565b82525050565b6000602082019050611a846000830184611a60565b92915050565b611a9381611912565b82525050565b611aa281611995565b82525050565b600081519050919050565b600082825260208201905092915050565b60005b83811015611ae2578082015181840152602081019050611ac7565b60008484015250505050565b6000601f19601f8301169050919050565b6000611b0a82611aa8565b611b148185611ab3565b9350611b24818560208601611ac4565b611b2d81611aee565b840191505092915050565b611b4181611a2a565b82525050565b600061012083016000830151611b606000860182611a8a565b506020830151611b736020860182611a99565b5060408301518482036040860152611b8b8282611aff565b91505060608301518482036060860152611ba58282611aff565b9150506080830151611bba6080860182611a8a565b5060a0830151611bcd60a0860182611b38565b5060c0830151611be060c0860182611b38565b5060e0830151611bf360e0860182611a99565b50610100830151611c08610100860182611a8a565b508091505092915050565b60006020820190508181036000830152611c2d8184611b47565b905092915050565b600080fd5b600080fd5b7f4e487b7100000000000000000000000000000000000000000000000000000000600052604160045260246000fd5b611c7782611aee565b810181811067ffffffffffffffff82111715611c9657611c95611c3f565b5b80604052505050565b6000611ca96118fe565b9050611cb58282611c6e565b919050565b600067ffffffffffffffff821115611cd557611cd4611c3f565b5b611cde82611aee565b9050602081019050919050565b82818337600083830152505050565b6000611d0d611d0884611cba565b611c9f565b905082815260208101848484011115611d2957611d28611c3a565b5b611d34848285611ceb565b509392505050565b600082601f830112611d5157611d50611c35565b5b8135611d61848260208601611cfa565b91505092915050565b600080600060608486031215611d8357611d82611908565b5b600084013567ffffffffffffffff811115611da157611da061190d565b5b611dad86828701611d3c565b935050602084013567ffffffffffffffff811115611dce57611dcd61190d565b5b611dda86828701611d3c565b9250506040611deb86828701611933565b9150509250925092565b600082825260208201905092915050565b6000611e1182611aa8565b611e1b8185611df5565b9350611e2b818560208601611ac4565b611e3481611aee565b840191505092915050565b600061012082019050611e55600083018c611a60565b611e62602083018b6119a7565b8181036040830152611e74818a611e06565b90508181036060830152611e888189611e06565b9050611e976080830188611a60565b611ea460a0830187611a36565b611eb160c0830186611a36565b611ebe60e08301856119a7565b611ecc610100830184611a60565b9a9950505050505050505050565b60008060408385031215611ef157611ef0611908565b5b6000611eff85828601611933565b9250506020611f10858286016119e8565b9150509250929050565b600080600060608486031215611f3357611f32611908565b5b6000611f4186828701611933565b9350506020611f5286828701611933565b9250506040611f63868287016119e8565b9150509250925092565b7f4e487b7100000000000000000000000000000000000000000000000000000000600052601160045260246000fd5b6000611fa782611912565b91507fffffffffffffffffffffffffffffffffffffffffffffffffffffffffffffffff8203611fd957611fd8611f6d565b5b600182019050919050565b7f4e487b7100000000000000000000000000000000000000000000000000000000600052602260045260246000fd5b6000600282049050600182168061202b57607f821691505b60208210810361203e5761203d611fe4565b5b50919050565b60008190508160005260206000209050919050565b60006020601f8301049050919050565b600082821b905092915050565b6000600883026120a67fffffffffffffffffffffffffffffffffffffffffffffffffffffffffffffffff82612069565b6120b08683612069565b95508019841693508086168417925050509392505050565b6000819050919050565b60006120ed6120e86120e384611912565b6120c8565b611912565b9050919050565b6000819050919050565b612107836120d2565b61211b612113826120f4565b848454612076565b825550505050565b600090565b612130612123565b61213b8184846120fe565b505050565b5b8181101561215f57612154600082612128565b600181019050612141565b5050565b601f8211156121a45761217581612044565b61217e84612059565b8101602085101561218d578190505b6121a161219985612059565b830182612140565b50505b505050565b600082821c905092915050565b60006121c7600019846008026121a9565b1980831691505092915050565b60006121e083836121b6565b9150826002028217905092915050565b6121f982611aa8565b67ffffffffffffffff81111561221257612211611c3f565b5b61221c8254612013565b612227828285612163565b600060209050601f83116001811461225a5760008415612248578287015190505b61225285826121d4565b8655506122ba565b601f19841661226886612044565b60005b828110156122905784890151825560018201915060208501945060208101905061226b565b868310156122ad57848901516122a9601f8916826121b6565b8355505b6001600288020188555050505b50505050505056fea2646970667358221220aa720ee64966d74bb229ff7cd2592235a528b0fe4bb6511d25303a79bff1a0f164736f6c63430008110033",
  "devdoc": {
    "kind": "dev",
    "methods": {},
    "version": 1
  },
  "userdoc": {
    "kind": "user",
    "methods": {},
    "version": 1
  },
  "storageLayout": {
    "storage": [
      {
        "astId": 97,
        "contract": "contracts/Ishare.sol:IShare",
        "label": "_userID",
        "offset": 0,
        "slot": "0",
        "type": "t_struct(Counter)5_storage"
      },
      {
        "astId": 100,
        "contract": "contracts/Ishare.sol:IShare",
        "label": "_requestedID",
        "offset": 0,
        "slot": "1",
        "type": "t_struct(Counter)5_storage"
      },
      {
        "astId": 124,
        "contract": "contracts/Ishare.sol:IShare",
        "label": "s_allUsers",
        "offset": 0,
        "slot": "2",
        "type": "t_mapping(t_uint256,t_struct(UserCredentials)119_storage)"
      },
      {
        "astId": 128,
        "contract": "contracts/Ishare.sol:IShare",
        "label": "s_requestedVerifier",
        "offset": 0,
        "slot": "3",
        "type": "t_mapping(t_uint256,t_address)"
      },
      {
        "astId": 132,
        "contract": "contracts/Ishare.sol:IShare",
        "label": "s_permittedVerfier",
        "offset": 0,
        "slot": "4",
        "type": "t_mapping(t_address,t_bool)"
      }
    ],
    "types": {
      "t_address": {
        "encoding": "inplace",
        "label": "address",
        "numberOfBytes": "20"
      },
      "t_bool": {
        "encoding": "inplace",
        "label": "bool",
        "numberOfBytes": "1"
      },
      "t_mapping(t_address,t_bool)": {
        "encoding": "mapping",
        "key": "t_address",
        "label": "mapping(address => bool)",
        "numberOfBytes": "32",
        "value": "t_bool"
      },
      "t_mapping(t_uint256,t_address)": {
        "encoding": "mapping",
        "key": "t_uint256",
        "label": "mapping(uint256 => address)",
        "numberOfBytes": "32",
        "value": "t_address"
      },
      "t_mapping(t_uint256,t_struct(UserCredentials)119_storage)": {
        "encoding": "mapping",
        "key": "t_uint256",
        "label": "mapping(uint256 => struct IShare.UserCredentials)",
        "numberOfBytes": "32",
        "value": "t_struct(UserCredentials)119_storage"
      },
      "t_string_storage": {
        "encoding": "bytes",
        "label": "string",
        "numberOfBytes": "32"
      },
      "t_struct(Counter)5_storage": {
        "encoding": "inplace",
        "label": "struct Counters.Counter",
        "members": [
          {
            "astId": 4,
            "contract": "contracts/Ishare.sol:IShare",
            "label": "_value",
            "offset": 0,
            "slot": "0",
            "type": "t_uint256"
          }
        ],
        "numberOfBytes": "32"
      },
      "t_struct(UserCredentials)119_storage": {
        "encoding": "inplace",
        "label": "struct IShare.UserCredentials",
        "members": [
          {
            "astId": 102,
            "contract": "contracts/Ishare.sol:IShare",
            "label": "userId",
            "offset": 0,
            "slot": "0",
            "type": "t_uint256"
          },
          {
            "astId": 104,
            "contract": "contracts/Ishare.sol:IShare",
            "label": "userAddress",
            "offset": 0,
            "slot": "1",
            "type": "t_address"
          },
          {
            "astId": 106,
            "contract": "contracts/Ishare.sol:IShare",
            "label": "userName",
            "offset": 0,
            "slot": "2",
            "type": "t_string_storage"
          },
          {
            "astId": 108,
            "contract": "contracts/Ishare.sol:IShare",
            "label": "userLocation",
            "offset": 0,
            "slot": "3",
            "type": "t_string_storage"
          },
          {
            "astId": 110,
            "contract": "contracts/Ishare.sol:IShare",
            "label": "userAge",
            "offset": 0,
            "slot": "4",
            "type": "t_uint256"
          },
          {
            "astId": 112,
            "contract": "contracts/Ishare.sol:IShare",
            "label": "userSigned",
            "offset": 0,
            "slot": "5",
            "type": "t_bool"
          },
          {
            "astId": 114,
            "contract": "contracts/Ishare.sol:IShare",
            "label": "isseuerSigned",
            "offset": 1,
            "slot": "5",
            "type": "t_bool"
          },
          {
            "astId": 116,
            "contract": "contracts/Ishare.sol:IShare",
            "label": "issuerId",
            "offset": 2,
            "slot": "5",
            "type": "t_address"
          },
          {
            "astId": 118,
            "contract": "contracts/Ishare.sol:IShare",
            "label": "issueDate",
            "offset": 0,
            "slot": "6",
            "type": "t_uint256"
          }
        ],
        "numberOfBytes": "224"
      },
      "t_uint256": {
        "encoding": "inplace",
        "label": "uint256",
        "numberOfBytes": "32"
      }
    }
  }
}