{
  "address": "0xC40C385A0C09aF78aB470A423a62246Ad9c3A15B",
  "abi": [
    {
      "inputs": [],
      "name": "AlreadyRequested",
      "type": "error"
    },
    {
      "inputs": [],
      "name": "AlreadySigned",
      "type": "error"
    },
    {
      "inputs": [],
      "name": "NotOwner",
      "type": "error"
    },
    {
      "inputs": [],
      "name": "NotRequestedYet",
      "type": "error"
    },
    {
      "inputs": [],
      "name": "NotSigned",
      "type": "error"
    },
    {
      "inputs": [],
      "name": "NotValidInput",
      "type": "error"
    },
    {
      "inputs": [],
      "name": "NotVerifier",
      "type": "error"
    },
    {
      "inputs": [],
      "name": "SamePerson",
      "type": "error"
    },
    {
      "anonymous": false,
      "inputs": [],
      "name": "ConcentRevoked",
      "type": "event"
    },
    {
      "anonymous": false,
      "inputs": [],
      "name": "CredentialsAcepted",
      "type": "event"
    },
    {
      "anonymous": false,
      "inputs": [],
      "name": "CredentialsIssued",
      "type": "event"
    },
    {
      "anonymous": false,
      "inputs": [],
      "name": "GiveConcent",
      "type": "event"
    },
    {
      "anonymous": false,
      "inputs": [],
      "name": "RequestSent",
      "type": "event"
    },
    {
      "inputs": [],
      "name": "_userID",
      "outputs": [
        {
          "internalType": "uint256",
          "name": "_value",
          "type": "uint256"
        }
      ],
      "stateMutability": "view",
      "type": "function"
    },
    {
      "inputs": [
        {
          "internalType": "address",
          "name": "userId",
          "type": "address"
        },
        {
          "internalType": "uint256",
          "name": "userNo",
          "type": "uint256"
        }
      ],
      "name": "acceptCredentials",
      "outputs": [],
      "stateMutability": "nonpayable",
      "type": "function"
    },
    {
      "inputs": [
        {
          "internalType": "address",
          "name": "userId",
          "type": "address"
        },
        {
          "internalType": "address",
          "name": "recipientId",
          "type": "address"
        }
      ],
      "name": "checkConcent",
      "outputs": [
        {
          "internalType": "bool",
          "name": "",
          "type": "bool"
        }
      ],
      "stateMutability": "view",
      "type": "function"
    },
    {
      "inputs": [
        {
          "internalType": "address",
          "name": "userId",
          "type": "address"
        },
        {
          "internalType": "address",
          "name": "recipientId",
          "type": "address"
        }
      ],
      "name": "giveConcent",
      "outputs": [],
      "stateMutability": "nonpayable",
      "type": "function"
    },
    {
      "inputs": [
        {
          "internalType": "address",
          "name": "userId",
          "type": "address"
        },
        {
          "internalType": "uint256",
          "name": "userNo",
          "type": "uint256"
        }
      ],
      "name": "issueCredentials",
      "outputs": [],
      "stateMutability": "nonpayable",
      "type": "function"
    },
    {
      "inputs": [
        {
          "internalType": "string",
          "name": "_name",
          "type": "string"
        },
        {
          "internalType": "string",
          "name": "_location",
          "type": "string"
        },
        {
          "internalType": "uint256",
          "name": "_age",
          "type": "uint256"
        }
      ],
      "name": "requestCredentials",
      "outputs": [],
      "stateMutability": "nonpayable",
      "type": "function"
    },
    {
      "inputs": [
        {
          "internalType": "address",
          "name": "userId",
          "type": "address"
        },
        {
          "internalType": "address",
          "name": "recipientId",
          "type": "address"
        }
      ],
      "name": "revokeConcent",
      "outputs": [],
      "stateMutability": "nonpayable",
      "type": "function"
    },
    {
      "inputs": [
        {
          "internalType": "uint256",
          "name": "",
          "type": "uint256"
        }
      ],
      "name": "s_Users",
      "outputs": [
        {
          "internalType": "uint256",
          "name": "userNo",
          "type": "uint256"
        },
        {
          "internalType": "address",
          "name": "userId",
          "type": "address"
        },
        {
          "internalType": "string",
          "name": "userName",
          "type": "string"
        },
        {
          "internalType": "string",
          "name": "userLocation",
          "type": "string"
        },
        {
          "internalType": "uint256",
          "name": "userAge",
          "type": "uint256"
        },
        {
          "internalType": "bool",
          "name": "userSigned",
          "type": "bool"
        },
        {
          "internalType": "bool",
          "name": "isseuerSigned",
          "type": "bool"
        },
        {
          "internalType": "address",
          "name": "issuerId",
          "type": "address"
        },
        {
          "internalType": "uint256",
          "name": "issueDate",
          "type": "uint256"
        }
      ],
      "stateMutability": "view",
      "type": "function"
    },
    {
      "inputs": [
        {
          "internalType": "address",
          "name": "",
          "type": "address"
        }
      ],
      "name": "s_allUsers",
      "outputs": [
        {
          "internalType": "uint256",
          "name": "userNo",
          "type": "uint256"
        },
        {
          "internalType": "address",
          "name": "userId",
          "type": "address"
        },
        {
          "internalType": "string",
          "name": "userName",
          "type": "string"
        },
        {
          "internalType": "string",
          "name": "userLocation",
          "type": "string"
        },
        {
          "internalType": "uint256",
          "name": "userAge",
          "type": "uint256"
        },
        {
          "internalType": "bool",
          "name": "userSigned",
          "type": "bool"
        },
        {
          "internalType": "bool",
          "name": "isseuerSigned",
          "type": "bool"
        },
        {
          "internalType": "address",
          "name": "issuerId",
          "type": "address"
        },
        {
          "internalType": "uint256",
          "name": "issueDate",
          "type": "uint256"
        }
      ],
      "stateMutability": "view",
      "type": "function"
    },
    {
      "inputs": [
        {
          "internalType": "address",
          "name": "",
          "type": "address"
        }
      ],
      "name": "s_permittedVerfier",
      "outputs": [
        {
          "internalType": "bool",
          "name": "",
          "type": "bool"
        }
      ],
      "stateMutability": "view",
      "type": "function"
    },
    {
      "inputs": [
        {
          "internalType": "address",
          "name": "userId",
          "type": "address"
        },
        {
          "internalType": "address",
          "name": "recipientId",
          "type": "address"
        }
      ],
      "name": "verifyUser",
      "outputs": [
        {
          "internalType": "bool",
          "name": "",
          "type": "bool"
        }
      ],
      "stateMutability": "view",
      "type": "function"
    }
  ],
  "transactionHash": "0x021ee72050c0d3402514ad7fc67e32b5f5fd5b1a382d29a68fbcdcb3946046b2",
  "args": [],
  "numDeployments": 1,
  "solcInputHash": "38fe247d595cc659c059ad08993fd142",
  "bytecode": "0x608060405234801561001057600080fd5b50611fe7806100206000396000f3fe608060405234801561001057600080fd5b50600436106100a95760003560e01c806365949f771161007157806365949f771461016a578063820575de146101865780638865fb75146101be578063a7ef9cff146101dc578063b8291144146101f8578063f3b9025c14610228576100a9565b80632864ce33146100ae57806329552766146100ca578063554b9bd6146100fa5780635a99f8b0146101165780636281afad1461014e575b600080fd5b6100c860048036038101906100c3919061189f565b610258565b005b6100e460048036038101906100df91906118df565b6105b7565b6040516100f19190611927565b60405180910390f35b610114600480360381019061010f9190611942565b6105d7565b005b610130600480360381019061012b9190611982565b6107b3565b60405161014599989796959493929190611a5d565b60405180910390f35b61016860048036038101906101639190611c2d565b61096b565b005b610184600480360381019061017f919061189f565b610e26565b005b6101a0600480360381019061019b91906118df565b611111565b6040516101b599989796959493929190611a5d565b60405180910390f35b6101c66112c9565b6040516101d39190611cb8565b60405180910390f35b6101f660048036038101906101f19190611942565b6112d5565b005b610212600480360381019061020d9190611942565b6114b1565b60405161021f9190611927565b60405180910390f35b610242600480360381019061023d9190611942565b611673565b60405161024f9190611927565b60405180910390f35b6000600260008473ffffffffffffffffffffffffffffffffffffffff1673ffffffffffffffffffffffffffffffffffffffff16815260200190815260200160002060040154116102d4576040517fb55fae1e00000000000000000000000000000000000000000000000000000000815260040160405180910390fd5b3373ffffffffffffffffffffffffffffffffffffffff16600260008473ffffffffffffffffffffffffffffffffffffffff1673ffffffffffffffffffffffffffffffffffffffff16815260200190815260200160002060010160009054906101000a900473ffffffffffffffffffffffffffffffffffffffff1673ffffffffffffffffffffffffffffffffffffffff160361039b576040517ff4e93c5b00000000000000000000000000000000000000000000000000000000815260040160405180910390fd5b60011515600260008473ffffffffffffffffffffffffffffffffffffffff1673ffffffffffffffffffffffffffffffffffffffff16815260200190815260200160002060050160019054906101000a900460ff16151503610428576040517fb0bd6aca00000000000000000000000000000000000000000000000000000000815260040160405180910390fd5b33600260008473ffffffffffffffffffffffffffffffffffffffff1673ffffffffffffffffffffffffffffffffffffffff16815260200190815260200160002060050160026101000a81548173ffffffffffffffffffffffffffffffffffffffff021916908373ffffffffffffffffffffffffffffffffffffffff1602179055506001600260008473ffffffffffffffffffffffffffffffffffffffff1673ffffffffffffffffffffffffffffffffffffffff16815260200190815260200160002060050160016101000a81548160ff021916908315150217905550336001600083815260200190815260200160002060050160026101000a81548173ffffffffffffffffffffffffffffffffffffffff021916908373ffffffffffffffffffffffffffffffffffffffff160217905550600180600083815260200190815260200160002060050160016101000a81548160ff0219169083151502179055507f0c60052fa311dc6c6e2e2dd2fd730e75737e2e432c4a9b254a0e9b5e21edc8dd60405160405180910390a15050565b60036020528060005260406000206000915054906101000a900460ff1681565b3373ffffffffffffffffffffffffffffffffffffffff16600260008473ffffffffffffffffffffffffffffffffffffffff1673ffffffffffffffffffffffffffffffffffffffff16815260200190815260200160002060010160009054906101000a900473ffffffffffffffffffffffffffffffffffffffff1673ffffffffffffffffffffffffffffffffffffffff161461069e576040517f30cd747100000000000000000000000000000000000000000000000000000000815260040160405180910390fd5b60001515600260008473ffffffffffffffffffffffffffffffffffffffff1673ffffffffffffffffffffffffffffffffffffffff16815260200190815260200160002060050160019054906101000a900460ff1615150361072b576040517fa72952d800000000000000000000000000000000000000000000000000000000815260040160405180910390fd5b6001600360008373ffffffffffffffffffffffffffffffffffffffff1673ffffffffffffffffffffffffffffffffffffffff16815260200190815260200160002060006101000a81548160ff0219169083151502179055507fc003cdc0e3a1aed0b7bfd60d36a3d0adcb2a5fb7df58cd086261e88b421ca38860405160405180910390a15050565b60016020528060005260406000206000915090508060000154908060010160009054906101000a900473ffffffffffffffffffffffffffffffffffffffff169080600201805461080290611d02565b80601f016020809104026020016040519081016040528092919081815260200182805461082e90611d02565b801561087b5780601f106108505761010080835404028352916020019161087b565b820191906000526020600020905b81548152906001019060200180831161085e57829003601f168201915b50505050509080600301805461089090611d02565b80601f01602080910402602001604051908101604052809291908181526020018280546108bc90611d02565b80156109095780601f106108de57610100808354040283529160200191610909565b820191906000526020600020905b8154815290600101906020018083116108ec57829003601f168201915b5050505050908060040154908060050160009054906101000a900460ff16908060050160019054906101000a900460ff16908060050160029054906101000a900473ffffffffffffffffffffffffffffffffffffffff16908060060154905089565b3373ffffffffffffffffffffffffffffffffffffffff16600260003373ffffffffffffffffffffffffffffffffffffffff1673ffffffffffffffffffffffffffffffffffffffff16815260200190815260200160002060010160009054906101000a900473ffffffffffffffffffffffffffffffffffffffff1673ffffffffffffffffffffffffffffffffffffffff1603610a32576040517f5303ed8200000000000000000000000000000000000000000000000000000000815260040160405180910390fd5b60008111610a6c576040517f3cbe35cb00000000000000000000000000000000000000000000000000000000815260040160405180910390fd5b610a7660006117d3565b6000610a8260006117e9565b90506040518061012001604052808281526020013373ffffffffffffffffffffffffffffffffffffffff168152602001858152602001848152602001838152602001600015158152602001600015158152602001600073ffffffffffffffffffffffffffffffffffffffff16815260200142815250600260003373ffffffffffffffffffffffffffffffffffffffff1673ffffffffffffffffffffffffffffffffffffffff1681526020019081526020016000206000820151816000015560208201518160010160006101000a81548173ffffffffffffffffffffffffffffffffffffffff021916908373ffffffffffffffffffffffffffffffffffffffff1602179055506040820151816002019081610b9c9190611edf565b506060820151816003019081610bb29190611edf565b506080820151816004015560a08201518160050160006101000a81548160ff02191690831515021790555060c08201518160050160016101000a81548160ff02191690831515021790555060e08201518160050160026101000a81548173ffffffffffffffffffffffffffffffffffffffff021916908373ffffffffffffffffffffffffffffffffffffffff16021790555061010082015181600601559050506040518061012001604052808281526020013373ffffffffffffffffffffffffffffffffffffffff168152602001858152602001848152602001838152602001600015158152602001600015158152602001600073ffffffffffffffffffffffffffffffffffffffff16815260200142815250600160008381526020019081526020016000206000820151816000015560208201518160010160006101000a81548173ffffffffffffffffffffffffffffffffffffffff021916908373ffffffffffffffffffffffffffffffffffffffff1602179055506040820151816002019081610d3e9190611edf565b506060820151816003019081610d549190611edf565b506080820151816004015560a08201518160050160006101000a81548160ff02191690831515021790555060c08201518160050160016101000a81548160ff02191690831515021790555060e08201518160050160026101000a81548173ffffffffffffffffffffffffffffffffffffffff021916908373ffffffffffffffffffffffffffffffffffffffff16021790555061010082015181600601559050507f565011a91c0f2ceea331fd0d11c17fa1e16cbf9231914ab1a37dce34b92860b060405160405180910390a150505050565b6000600260008473ffffffffffffffffffffffffffffffffffffffff1673ffffffffffffffffffffffffffffffffffffffff1681526020019081526020016000206004015411610ea2576040517fb55fae1e00000000000000000000000000000000000000000000000000000000815260040160405180910390fd5b3373ffffffffffffffffffffffffffffffffffffffff16600260008473ffffffffffffffffffffffffffffffffffffffff1673ffffffffffffffffffffffffffffffffffffffff16815260200190815260200160002060010160009054906101000a900473ffffffffffffffffffffffffffffffffffffffff1673ffffffffffffffffffffffffffffffffffffffff1614610f69576040517f30cd747100000000000000000000000000000000000000000000000000000000815260040160405180910390fd5b60001515600260008473ffffffffffffffffffffffffffffffffffffffff1673ffffffffffffffffffffffffffffffffffffffff16815260200190815260200160002060050160019054906101000a900460ff16151503610ff6576040517fa72952d800000000000000000000000000000000000000000000000000000000815260040160405180910390fd5b6001600260008473ffffffffffffffffffffffffffffffffffffffff1673ffffffffffffffffffffffffffffffffffffffff16815260200190815260200160002060050160006101000a81548160ff02191690831515021790555042600260008473ffffffffffffffffffffffffffffffffffffffff1673ffffffffffffffffffffffffffffffffffffffff16815260200190815260200160002060060181905550600180600083815260200190815260200160002060050160006101000a81548160ff0219169083151502179055504260016000838152602001908152602001600020600601819055507f1fbdb707c446b25b4bd13645713aad45db36836dd2c0e865016596bdec3e2a5c60405160405180910390a15050565b60026020528060005260406000206000915090508060000154908060010160009054906101000a900473ffffffffffffffffffffffffffffffffffffffff169080600201805461116090611d02565b80601f016020809104026020016040519081016040528092919081815260200182805461118c90611d02565b80156111d95780601f106111ae576101008083540402835291602001916111d9565b820191906000526020600020905b8154815290600101906020018083116111bc57829003601f168201915b5050505050908060030180546111ee90611d02565b80601f016020809104026020016040519081016040528092919081815260200182805461121a90611d02565b80156112675780601f1061123c57610100808354040283529160200191611267565b820191906000526020600020905b81548152906001019060200180831161124a57829003601f168201915b5050505050908060040154908060050160009054906101000a900460ff16908060050160019054906101000a900460ff16908060050160029054906101000a900473ffffffffffffffffffffffffffffffffffffffff16908060060154905089565b60008060000154905081565b3373ffffffffffffffffffffffffffffffffffffffff16600260008473ffffffffffffffffffffffffffffffffffffffff1673ffffffffffffffffffffffffffffffffffffffff16815260200190815260200160002060010160009054906101000a900473ffffffffffffffffffffffffffffffffffffffff1673ffffffffffffffffffffffffffffffffffffffff161461139c576040517f30cd747100000000000000000000000000000000000000000000000000000000815260040160405180910390fd5b60001515600260008473ffffffffffffffffffffffffffffffffffffffff1673ffffffffffffffffffffffffffffffffffffffff16815260200190815260200160002060050160019054906101000a900460ff16151503611429576040517fa72952d800000000000000000000000000000000000000000000000000000000815260040160405180910390fd5b6000600360008373ffffffffffffffffffffffffffffffffffffffff1673ffffffffffffffffffffffffffffffffffffffff16815260200190815260200160002060006101000a81548160ff0219169083151502179055507f393d92a2bfd12ed1a2903ef3453111d3f3ccffa03ede9a02ba3932225eb30b0860405160405180910390a15050565b60003373ffffffffffffffffffffffffffffffffffffffff16600260008573ffffffffffffffffffffffffffffffffffffffff1673ffffffffffffffffffffffffffffffffffffffff16815260200190815260200160002060010160009054906101000a900473ffffffffffffffffffffffffffffffffffffffff1673ffffffffffffffffffffffffffffffffffffffff161461157a576040517f30cd747100000000000000000000000000000000000000000000000000000000815260040160405180910390fd5b60001515600260008573ffffffffffffffffffffffffffffffffffffffff1673ffffffffffffffffffffffffffffffffffffffff16815260200190815260200160002060050160019054906101000a900460ff16151503611607576040517fa72952d800000000000000000000000000000000000000000000000000000000815260040160405180910390fd5b60011515600360008473ffffffffffffffffffffffffffffffffffffffff1673ffffffffffffffffffffffffffffffffffffffff16815260200190815260200160002060009054906101000a900460ff16151503611668576001905061166d565b600090505b92915050565b60003373ffffffffffffffffffffffffffffffffffffffff168273ffffffffffffffffffffffffffffffffffffffff16146116da576040517f2466355600000000000000000000000000000000000000000000000000000000815260040160405180910390fd5b60001515600260008573ffffffffffffffffffffffffffffffffffffffff1673ffffffffffffffffffffffffffffffffffffffff16815260200190815260200160002060050160019054906101000a900460ff16151503611767576040517fa72952d800000000000000000000000000000000000000000000000000000000815260040160405180910390fd5b60011515600360008473ffffffffffffffffffffffffffffffffffffffff1673ffffffffffffffffffffffffffffffffffffffff16815260200190815260200160002060009054906101000a900460ff161515036117c857600190506117cd565b600090505b92915050565b6001816000016000828254019250508190555050565b600081600001549050919050565b6000604051905090565b600080fd5b600080fd5b600073ffffffffffffffffffffffffffffffffffffffff82169050919050565b60006118368261180b565b9050919050565b6118468161182b565b811461185157600080fd5b50565b6000813590506118638161183d565b92915050565b6000819050919050565b61187c81611869565b811461188757600080fd5b50565b60008135905061189981611873565b92915050565b600080604083850312156118b6576118b5611801565b5b60006118c485828601611854565b92505060206118d58582860161188a565b9150509250929050565b6000602082840312156118f5576118f4611801565b5b600061190384828501611854565b91505092915050565b60008115159050919050565b6119218161190c565b82525050565b600060208201905061193c6000830184611918565b92915050565b6000806040838503121561195957611958611801565b5b600061196785828601611854565b925050602061197885828601611854565b9150509250929050565b60006020828403121561199857611997611801565b5b60006119a68482850161188a565b91505092915050565b6119b881611869565b82525050565b6119c78161182b565b82525050565b600081519050919050565b600082825260208201905092915050565b60005b83811015611a075780820151818401526020810190506119ec565b60008484015250505050565b6000601f19601f8301169050919050565b6000611a2f826119cd565b611a3981856119d8565b9350611a498185602086016119e9565b611a5281611a13565b840191505092915050565b600061012082019050611a73600083018c6119af565b611a80602083018b6119be565b8181036040830152611a92818a611a24565b90508181036060830152611aa68189611a24565b9050611ab560808301886119af565b611ac260a0830187611918565b611acf60c0830186611918565b611adc60e08301856119be565b611aea6101008301846119af565b9a9950505050505050505050565b600080fd5b600080fd5b7f4e487b7100000000000000000000000000000000000000000000000000000000600052604160045260246000fd5b611b3a82611a13565b810181811067ffffffffffffffff82111715611b5957611b58611b02565b5b80604052505050565b6000611b6c6117f7565b9050611b788282611b31565b919050565b600067ffffffffffffffff821115611b9857611b97611b02565b5b611ba182611a13565b9050602081019050919050565b82818337600083830152505050565b6000611bd0611bcb84611b7d565b611b62565b905082815260208101848484011115611bec57611beb611afd565b5b611bf7848285611bae565b509392505050565b600082601f830112611c1457611c13611af8565b5b8135611c24848260208601611bbd565b91505092915050565b600080600060608486031215611c4657611c45611801565b5b600084013567ffffffffffffffff811115611c6457611c63611806565b5b611c7086828701611bff565b935050602084013567ffffffffffffffff811115611c9157611c90611806565b5b611c9d86828701611bff565b9250506040611cae8682870161188a565b9150509250925092565b6000602082019050611ccd60008301846119af565b92915050565b7f4e487b7100000000000000000000000000000000000000000000000000000000600052602260045260246000fd5b60006002820490506001821680611d1a57607f821691505b602082108103611d2d57611d2c611cd3565b5b50919050565b60008190508160005260206000209050919050565b60006020601f8301049050919050565b600082821b905092915050565b600060088302611d957fffffffffffffffffffffffffffffffffffffffffffffffffffffffffffffffff82611d58565b611d9f8683611d58565b95508019841693508086168417925050509392505050565b6000819050919050565b6000611ddc611dd7611dd284611869565b611db7565b611869565b9050919050565b6000819050919050565b611df683611dc1565b611e0a611e0282611de3565b848454611d65565b825550505050565b600090565b611e1f611e12565b611e2a818484611ded565b505050565b5b81811015611e4e57611e43600082611e17565b600181019050611e30565b5050565b601f821115611e9357611e6481611d33565b611e6d84611d48565b81016020851015611e7c578190505b611e90611e8885611d48565b830182611e2f565b50505b505050565b600082821c905092915050565b6000611eb660001984600802611e98565b1980831691505092915050565b6000611ecf8383611ea5565b9150826002028217905092915050565b611ee8826119cd565b67ffffffffffffffff811115611f0157611f00611b02565b5b611f0b8254611d02565b611f16828285611e52565b600060209050601f831160018114611f495760008415611f37578287015190505b611f418582611ec3565b865550611fa9565b601f198416611f5786611d33565b60005b82811015611f7f57848901518255600182019150602085019450602081019050611f5a565b86831015611f9c5784890151611f98601f891682611ea5565b8355505b6001600288020188555050505b50505050505056fea2646970667358221220a73261bb0dfcbc5be7b754e9583c8a8a487508a54d2944a34b3940b8db22313d64736f6c63430008110033",
  "devdoc": {
    "kind": "dev",
    "methods": {},
    "version": 1
  },
  "userdoc": {
    "kind": "user",
    "methods": {},
    "version": 1
  },
  "storageLayout": {
    "storage": [
      {
        "astId": 99,
        "contract": "contracts/Ishare.sol:IShare",
        "label": "_userID",
        "offset": 0,
        "slot": "0",
        "type": "t_struct(Counter)5_storage"
      },
      {
        "astId": 123,
        "contract": "contracts/Ishare.sol:IShare",
        "label": "s_Users",
        "offset": 0,
        "slot": "1",
        "type": "t_mapping(t_uint256,t_struct(UserCredentials)118_storage)"
      },
      {
        "astId": 128,
        "contract": "contracts/Ishare.sol:IShare",
        "label": "s_allUsers",
        "offset": 0,
        "slot": "2",
        "type": "t_mapping(t_address,t_struct(UserCredentials)118_storage)"
      },
      {
        "astId": 132,
        "contract": "contracts/Ishare.sol:IShare",
        "label": "s_permittedVerfier",
        "offset": 0,
        "slot": "3",
        "type": "t_mapping(t_address,t_bool)"
      }
    ],
    "types": {
      "t_address": {
        "encoding": "inplace",
        "label": "address",
        "numberOfBytes": "20"
      },
      "t_bool": {
        "encoding": "inplace",
        "label": "bool",
        "numberOfBytes": "1"
      },
      "t_mapping(t_address,t_bool)": {
        "encoding": "mapping",
        "key": "t_address",
        "label": "mapping(address => bool)",
        "numberOfBytes": "32",
        "value": "t_bool"
      },
      "t_mapping(t_address,t_struct(UserCredentials)118_storage)": {
        "encoding": "mapping",
        "key": "t_address",
        "label": "mapping(address => struct IShare.UserCredentials)",
        "numberOfBytes": "32",
        "value": "t_struct(UserCredentials)118_storage"
      },
      "t_mapping(t_uint256,t_struct(UserCredentials)118_storage)": {
        "encoding": "mapping",
        "key": "t_uint256",
        "label": "mapping(uint256 => struct IShare.UserCredentials)",
        "numberOfBytes": "32",
        "value": "t_struct(UserCredentials)118_storage"
      },
      "t_string_storage": {
        "encoding": "bytes",
        "label": "string",
        "numberOfBytes": "32"
      },
      "t_struct(Counter)5_storage": {
        "encoding": "inplace",
        "label": "struct Counters.Counter",
        "members": [
          {
            "astId": 4,
            "contract": "contracts/Ishare.sol:IShare",
            "label": "_value",
            "offset": 0,
            "slot": "0",
            "type": "t_uint256"
          }
        ],
        "numberOfBytes": "32"
      },
      "t_struct(UserCredentials)118_storage": {
        "encoding": "inplace",
        "label": "struct IShare.UserCredentials",
        "members": [
          {
            "astId": 101,
            "contract": "contracts/Ishare.sol:IShare",
            "label": "userNo",
            "offset": 0,
            "slot": "0",
            "type": "t_uint256"
          },
          {
            "astId": 103,
            "contract": "contracts/Ishare.sol:IShare",
            "label": "userId",
            "offset": 0,
            "slot": "1",
            "type": "t_address"
          },
          {
            "astId": 105,
            "contract": "contracts/Ishare.sol:IShare",
            "label": "userName",
            "offset": 0,
            "slot": "2",
            "type": "t_string_storage"
          },
          {
            "astId": 107,
            "contract": "contracts/Ishare.sol:IShare",
            "label": "userLocation",
            "offset": 0,
            "slot": "3",
            "type": "t_string_storage"
          },
          {
            "astId": 109,
            "contract": "contracts/Ishare.sol:IShare",
            "label": "userAge",
            "offset": 0,
            "slot": "4",
            "type": "t_uint256"
          },
          {
            "astId": 111,
            "contract": "contracts/Ishare.sol:IShare",
            "label": "userSigned",
            "offset": 0,
            "slot": "5",
            "type": "t_bool"
          },
          {
            "astId": 113,
            "contract": "contracts/Ishare.sol:IShare",
            "label": "isseuerSigned",
            "offset": 1,
            "slot": "5",
            "type": "t_bool"
          },
          {
            "astId": 115,
            "contract": "contracts/Ishare.sol:IShare",
            "label": "issuerId",
            "offset": 2,
            "slot": "5",
            "type": "t_address"
          },
          {
            "astId": 117,
            "contract": "contracts/Ishare.sol:IShare",
            "label": "issueDate",
            "offset": 0,
            "slot": "6",
            "type": "t_uint256"
          }
        ],
        "numberOfBytes": "224"
      },
      "t_uint256": {
        "encoding": "inplace",
        "label": "uint256",
        "numberOfBytes": "32"
      }
    }
  }
}